:020000040800F2
:10000000700E0020452B0008390700083B07000848
:100010003F070008430700084707000800000000EA
:100020000000000000000000000000004B07000876
:100030004D070008000000004F07000851070008A6
:100040005F2B00085F2B00085F2B00085F2B000868
:100050005F2B00085F2B00085F2B00085F2B000858
:100060005F2B00085F2B00085F2B00085F2B000848
:100070005F2B00085F2B00085F2B00085F2B000838
:100080005F2B00085F2B00085F2B00085F2B000828
:100090005F2B00085F2B00085F2B00085F2B000818
:1000A0005F2B00085F2B00085F2B00085F2B000808
:1000B00083290008C31A00083B1B00085F2B0008B7
:1000C0005F2B00085F2B00085F2B00085F2B0008E8
:1000D0005F2B0008232B00085F2B000899190008EC
:1000E0005F2B00085F2B00085F2B00085F2B0008C8
:1000F0005F2B00085F2B00085F2B00085F2B0008B8
:100100005F2B00085F2B00085F2B00085F2B0008A7
:100110005F2B00085F2B00085F2B00085F2B000897
:100120005F2B00085F2B00085F2B00085F2B000887
:1001300000F002F800F06EF80AA090E8000C82448B
:100140008344AAF10107DA4501D100F063F8AFF268
:10015000090EBAE80F0013F0010F18BFFB1A43F0A5
:100160000103184704C7000024C700000A444FF0E9
:10017000000C10F8013B13F0070408BF10F8014B06
:100180001D1108BF10F8015B641E05D010F8016B4B
:10019000641E01F8016BF9D113F0080F1EBF10F8AF
:1001A000014BAD1C0C1B09D16D1E58BF01F801CBD2
:1001B000FAD505E014F8016B01F8016B6D1EF9D555
:1001C0009142D6D37047000000230024002500266A
:1001D000103A28BF78C1FBD8520728BF30C148BFAA
:1001E0000B607047642908F0E383782908F01C84C9
:1001F000732908F04487002070471FB508F092FF6C
:1002000004000020002109F0F1FD401C60601FBDCA
:1002100010B510BD08F0DDFF1146FFF7EEFF00F04E
:100220008DF809F009F803B4FFF7F2FF03BC02F000
:100230001DFC000010B541F61F41092001F014FC1F
:100240004FF4165001F0B9FB1021FE4808F057FD9D
:1002500005F046FD10BDFC480078FA490860FB48EF
:1002600000784860FA480088FA490988884203DC27
:100270000120F449C86002E00020F249C860F64855
:100280000078401CC0B2F44908700A2805DB002041
:100290000870EF480088EB498860704770B50446E5
:1002A0000D4616460023EDA22946204600F00AFF1F
:1002B00004F14001C8B21023EBA2294600F0E7FE8A
:1002C0003246EAA1EB4808F00FFB04F14801C8B23E
:1002D0001023E84A294600F0DAFE70BDF8B504465E
:1002E0000D4616460023E4A22946204600F0EAFE09
:1002F00004F14001C8B21023DBA2294600F0C7FE7A
:10030000102004F148010090C8B204233246294667
:1003100000F079FE04F16801C8B21023D9A2294681
:1003200000F0B5FEF8BD10B50446042C05D1D6A0EA
:1003300008F0CEFA022005F0EAFC10BD1CB54FF41F
:10034000E13002F0A2FB06F061FD4FF4A06002F084
:1003500019FC01F05DFC00F0EDFA00F019FB02F071
:1003600094F802F03FF901F053FA00F0F2FCFFF7C5
:1003700061FF01F058FD0621002007F09EF80021E2
:1003800040F2833002F058FA47214FF6FF7002F036
:100390009BFA55E1002000F02BFBC249087002F0E7
:1003A00098F8C14A044603C209F0ACFFBF4908806F
:1003B00002F044FBBE48007800F08000F0B1BC4879
:1003C000007800F03F0A4FEA0A4ABA48008882449F
:1003D000504609F0DBFF04460022B74B09F00AFE45
:1003E000064609F019FDB5490860084600680AF09C
:1003F00051FCB34908800020AD490870B14800782D
:1004000040B9B1480068B1490968884202D1012069
:10041000AC490870AC480068AC490968884202D011
:100420000020A8490870AA48007840B9A64800688A
:10043000A8490968884202D10120A5490870A2484C
:100440000068A4490968884202D00020A0490870C9
:10045000A148007840B99C480068A04909688842D2
:1004600002D101209C490870974800689B4909689F
:10047000884202D00020984908709948007840B915
:100480009148006897490968884202D1012094493F
:1004900008708D48006893490968884202D000209E
:1004A0008F4908709048007830B97E48007803285A
:1004B00002D10120654908708B480078012808D1D5
:1004C0006348008863490988884202DA01205F494D
:1004D000087085480078022812D17A4800780128EF
:1004E0000BD07B480078012807D07B480078012892
:1004F00003D07B480078012802D1012053490870BD
:1005000052480078012815D17849087002204F49D7
:1005100008706C4908706E4908706F49087070491E
:1005200008706248008872490988884202DA01200E
:10053000704908706F48007801280AD15B4800882C
:100540006B490988884204DB0020404908706949EA
:10055000087066480078012808D1594800880A28A0
:1005600004DB0121084602F09BF802E000205F490D
:100570000870FFF770FE334805F0E6FD4948007843
:10058000FFF7D1FE2F48006830B92F4800780128C6
:1005900002D10020544908702A480068012805D17A
:1005A0002948007810B903204F4908702548007881
:1005B000254908704C480078032805D12148406837
:1005C000012801D1214908704B4882780021084652
:1005D00001F02DFE3548028802210020FFF77EFE43
:1005E0003748028804210020FFF758FE4048008861
:1005F00009F0CCFE06460022404B09F017FF0246E8
:100600000B46CDE90001284903C909F0F3FC044673
:1006100000223B4B09F00AFF804609F073FE0C49AB
:10062000088008460088642801DB642008800849A7
:100630000878062106F06AFF1A48007801F04CFE9F
:10064000A8E60000F40100200100002007000020BF
:100650000C0000201200002015000020B3ACC9F9E6
:10066000B2E2BEE0000000003A00000025336463FF
:100670006D00000004020020B3C6D6D8BCECB2E284
:10068000000000006700000057494649BDF8C8EB6C
:100690004169724C696E6BC1ACBDD3C4A3CABD0DB8
:1006A0000A0000002C000020400100200E00002065
:1006B000880100208A01002000804D408401002034
:1006C00010000020020000207C000020800000209C
:1006D0000300002084000020040000208800002087
:1006E000050000208C0000200000002006000020F3
:1006F0000A00002070000020220600200000F03FC9
:100700000000594070B504460D461646002307A266
:100710002946204600F0D6FC04F14001C8B210235F
:10072000AFF2BC02294600F0B2FC70BDCAA3D3E010
:10073000CAB3CEEF00000000704700BFFEE700BF65
:10074000FEE700BFFEE700BFFEE770477047704757
:10075000704700000CB50020019000906C480068C4
:1007600040F480306A49086000BF6948006800F4BE
:10077000003000900198401C0190009818B9019831
:10078000B0F5A06FF1D16248006800F4003010B1FC
:100790000120009001E0002000900098012843D142
:1007A0005C48006840F010005A490860084600683C
:1007B00020F0030008600846006840F0020008606E
:1007C00053484068524948600846406848600846B7
:1007D000406840F4806048600846406820F47C101F
:1007E00048600846406840F4E810486008460068E1
:1007F00040F08070086000BF4548006800F000705D
:100800000028F9D04248406820F003004049486081
:100810000846406840F00200486000BF3C4840681D
:1008200000F00C000828F9D10CBD10B5FFF792FFBD
:1008300010BD10B53648006840F00100344908602A
:100840000846406834490840314948600846006815
:10085000324908402E4908600846006820F480208C
:1008600008600846406820F4FE0048604FF41F000E
:100870008860FFF7DAFF4FF000602949086010BD7B
:1008800010B5002100200022214B5B6803F00C0111
:1008900021B1042906D0082928D107E0214B224C98
:1008A000236027E01F4B204C236023E0184B5B683C
:1008B00003F47010164B5B6803F48032022303EBE1
:1008C000904022B9194B4343174C23600DE0104B65
:1008D0005B6803F4003323B1144B4343124C236091
:1008E00003E0104B4343104C236003E00D4B0E4CD0
:1008F000236000BF00BF064B5B68C3F303130C4CBF
:10090000E15C094B1B68CB40074C236010BD000025
:1009100000100240002002400000FFF8FFFFF6FE3A
:1009200008ED00E000127A001800002000093D00E8
:100930001C00002008B501211C2002F0ADFC4FF482
:100940006040ADF8000010208DF8030003208DF802
:10095000020069460A4802F0E3F94FF41840ADF886
:1009600000006946074802F0DBF90920ADF80000F5
:100970006946054802F0D4F900200449086008BD22
:100980000010014000080140000C0140B801224263
:1009900008B501210C2002F07FFCE020ADF800003A
:1009A00048208DF8030069463F4802F0B9F910204D
:1009B000ADF8000048208DF8030069463A4802F07F
:1009C000AFF94FF40040ADF8000048208DF8030067
:1009D0006946354802F0A4F94FF48070ADF8000084
:1009E00048208DF803006946304802F099F908BDA7
:1009F00010B5044614B101202D4908702C48007828
:100A0000002835D02021284802F01DFA70B140217D
:100A1000254802F018FA48B18021234802F013FA61
:100A200020B11021204802F00EFA08BB0A2006F07F
:100A300058FA00201E49087020211B4802F003FAD2
:100A400008B9022010BD4021174802F0FCF908B98E
:100A50000320F7E78021144802F0F5F908B90420D3
:100A6000F0E71021104802F0EEF9D8B90120E9E7CB
:100A700020210D4802F0E7F9012813D140210A484E
:100A800002F0E1F901280DD18021074802F0DBF9DD
:100A9000012807D11021044802F0D5F9012801D11D
:100AA000034908700020CDE7000C01400008014018
:100AB0002D00002010B54FF48051FE4802F0DDF902
:100AC0004FF40051FB4802F0D8F94FF40051F948B7
:100AD00002F0D5F94FF48051F64802F0D0F910BD7C
:100AE00010B54FF48051F34802F0C7F94FF40051AC
:100AF000F04802F0C4F94FF40051EE4802F0BDF99D
:100B000010BD10B54FF48051EA4802F0B6F94FF429
:100B10008051E84802F0B3F910BD2DE9F0410546D7
:100B20002C464FF48051E34802F0A9F900261CE05E
:100B3000274607F08007802F04D1B901DD4802F075
:100B40009CF904E04FF40051DA4802F098F960068D
:100B5000040E4FF48051D74802F08FF94FF48051C2
:100B6000D44802F08CF9701CC6B2082EE0DBBDE858
:100B7000F08110B50446FFF79DFF7820FFF7CDFF09
:100B8000FFF7BFFF0020FFF7C8FFFFF7BAFF2046BF
:100B9000FFF7C3FFFFF7B5FFFFF7A2FF10BD10B5CA
:100BA0000446FFF787FF7820FFF7B7FFFFF7A9FF9D
:100BB0004020FFF7B2FFFFF7A4FF2046FFF7ADFF8D
:100BC000FFF79FFFFFF78CFF10BD70B504460D4681
:100BD0001DB1E0B2FFF7E3FF02E0E0B2FFF7C9FFAB
:100BE00070BD2DE9F04104460D4616469846069F15
:100BF000002418E0012F09D105EB0510AE4901EBE7
:100C00004000801C005DC043C6B206E005EB051045
:100C1000A94901EB4000801C065D01213046FFF729
:100C2000D4FF601CC4B2102CE4DBBDE8F0812DE9D8
:100C3000F04104460D4616469846069F00241CE0E7
:100C4000012F0BD105EB05109B4901EB4000801CE7
:100C500004F11001405CC043C6B208E005EB05108A
:100C6000954901EB4000801C04F11001465C012114
:100C70003046FFF7AAFF601CC4B2102CE0DBBDE8D1
:100C8000F08170B50646002418E004F1B0000021A0
:100C9000FFF79BFF00210846FFF797FF0021102078
:100CA000FFF793FF002505E001213046FFF78DFF98
:100CB000681CC5B2802DF7DB601CC4B2082CE4DBD5
:100CC00070BD06E041F6650100E0491E0029FCD137
:100CD000401E0028F6D17047014605E0002001E0E3
:100CE000421CD0B27B28FBDB0A00A1F10101F5D147
:100CF000704770B504460D4605F1B0000021FFF7BE
:100D000064FF102141EA14100021FFF75EFF04F098
:100D10000F000021FFF759FF70BD10B500218D2095
:100D2000FFF753FF00211420FFF74FFF0021AF20F2
:100D3000FFF74BFF10BD10B500218D20FFF745FFD9
:100D400000211020FFF741FF0021AE20FFF73DFFFB
:100D500010BD70B5002418E004F1B0000021FFF7C9
:100D600034FF00210846FFF730FF00211020FFF775
:100D70002CFF002505E001210020FFF726FF681C5D
:100D8000C5B2802DF7DB601CC4B2082CE4DB70BD5B
:100D900070B5002418E004F1B0000021FFF715FF42
:100DA00000210846FFF711FF00211020FFF70DFF7B
:100DB000002505E001210846FFF707FF681CC5B2C2
:100DC000802DF7DB601CC4B2082CE4DB70BD2DE97C
:100DD000F04107460E461546002431463846FFF7D7
:100DE00088FF00BF08E004EB0511344A505C012184
:100DF000FFF7EBFE601CC4B2082CF4DB701CC1B220
:100E00003846FFF776FF002409E004EB05110831AE
:100E10002A4A505C0121FFF7D8FE601CC4B2082C9E
:100E2000F3DBBDE8F0812DE9F04705460C46174697
:100E30004FF00009C4F13F00C4B27F2D01DC3F2C0C
:100E400001DDBDE8F0872046E11704EB5171C910C0
:100E5000C1F10701CEB2E11704EB5171C910A4EB47
:100E6000C10101F0FF08C8F107010120884000F02E
:100E7000FF0957B1124800EBC500805D40EA090048
:100E80000F4901EBC501885509E00D4800EBC5008D
:100E9000805D20EA09000A4901EBC501885500215F
:100EA000B120FFF792FE00210846FFF78EFE0021D9
:100EB000102007E0000C01406EB90008CEB8000811
:100EC00022020020FFF781FEFE4991F85100012126
:100ED000FFF77BFE00BFB4E770B500241BE004F110
:100EE000B0000021FFF771FE00210846FFF76DFEFC
:100EF00000211020FFF769FE002508E0F14901EB11
:100F0000C501085D0121FFF760FE681CC5B2802D98
:100F1000F4DB601CC4B2082CE1DB70BD2DE9F047A6
:100F200006460F4690469946DDF820A034460CE070
:100F30003D4606E0524629462046FFF774FF681CEE
:100F4000C5B24D45F6DD601CC4B24445F0DDFFF787
:100F5000C3FFBDE8F0872DE9F04707460E469046EF
:100F6000994600250024A8F12000C5B27F2F02DD9C
:100F70000027B01CC6B2B9F1100F24D13146384653
:100F8000FFF7B7FE002408E004EB0511CE4A505CE1
:100F90000121FFF71AFE601CC4B2082CF4DB701CA0
:100FA000C1B23846FFF7A5FE002409E004EB0511A5
:100FB0000831C54A505C0121FFF707FE601CC4B22E
:100FC000082CF3DB12E031463846FFF792FE00248E
:100FD0000AE005EB4501BD4A02EB4101085D012134
:100FE000FFF7F3FD601CC4B2062CF2DBBDE8F0870E
:100FF00010B50246012000E050430B00A1F10104AE
:10100000E1B2F9D110BD2DE9FF5F074691461E46BA
:101010000E9D4FF0000A002435E0301B401EC1B287
:101020000A20FFF7E5FFB9FBF0F00A21B0FBF1F26F
:1010300001FB1208BAF1000F14D1701EA04211DD9D
:10104000B8F1000F0CD1AB4605EBDB71491001FB89
:101050000471C8B22B4620220199FFF77CFF10E0F3
:101060004FF0010AAB4605EBDB71491001FB04713F
:10107000C8B208F13001CAB22B460199FFF76BFFE5
:1010800000BF601CC4B2B442C7DBBDE8FF9F2DE9BE
:10109000F04105460E4614461F460EE022783B46B8
:1010A00031462846FFF757FF05F10800C5B2782DF5
:1010B00002DD0025B01CC6B2641C20780028EDD1EA
:1010C000BDE8F0812DE9FE4F06460F4615469846CD
:1010D0004FF0000A284607F07CFDC0F3470BD146CD
:1010E0003AE0002434E004EB0410794911F81000D0
:1010F000297888422AD104EB0410754901EB40009D
:1011000040786978884221D1AD1CF9B2F0B2FFF77E
:10111000F0FDE1B25346CDF80080DDE9012006F094
:1011200096F97A1CD1B2F0B2FFF7E3FDE1B2534673
:10113000CDF80080DDE9012006F0A4F906F11000E9
:1011400086B209F101001FFA80F903E0601C84B245
:10115000472CC8D300BF00BFD945C2DBBDE8FE8F16
:101160002DE9F05F06460F4690461C46DDF828A0A4
:101170004FF0000BE11704EB5171C910A4EBC10152
:1011800031B92046E11704EB5171C1F3C70506E000
:101190002046E11704EB5171C910491CCDB23D4600
:1011A00015E029463046FFF7A4FDB1460BE059464D
:1011B0000BF1010B1AF801000121FFF706FD09F1FF
:1011C000010000F0FF09C145F1DB681CC5B2A54272
:1011D000E7DBBDE8F09F2DE9FF5F86B014461D46B2
:1011E0004FF0010A00200390049005904FF0010990
:1011F000002600BF8346002213462046294609F0F8
:10120000D9F809D285F00040CDE900402046019987
:1012100009F048F8064604E02046294609F042F85D
:101220000646304609F09BF822462B46CDE90001E0
:1012300009F030FA074688460022264B38464146D8
:1012400009F0F4F8CDE9000109F05CF8834607E005
:1012500009EB89004FEA40090AF1010000F0FF0A9A
:101260000A2096FBF0F090FBF9F00028F0D142F252
:10127000107096FBF0F00A2190FBF1F201FB1200D6
:10128000C0B28DF80C004FF47A7096FBF0F090FB32
:10129000F1F201FB1200C0B28DF80D00642096FB44
:1012A000F0F090FBF1F201FB1200C0B28DF80E00DD
:1012B0000A2096FBF0F090FBF1F201FB1200C0B2A5
:1012C0000AE0000022020020CEB20008A6B000080A
:1012D0006EB900080088C3408DF80F000A2096FB05
:1012E000F0F100FB1160C0B28DF810002E208DF8D7
:1012F00011004FF47A70BBFBF0F00A21B0FBF1F261
:1013000001FB12008DF812006420BBFBF0F0B0FB73
:10131000F1F201FB12008DF813000A20BBFBF0F084
:10132000B0FBF1F201FB12008DF814000A20BBFBA8
:10133000F0F100FB11B08DF8150000211498801D0C
:1013400003AA1154894608E003A810F809003030B8
:1013500003A901F8090009F10109B9F10A0FF3DB4A
:10136000002213462046294609F024F808D20AF143
:10137000010000F0FF0A2D20CAF1050103AA505414
:101380002E208DF8110000211498801D03AA1154FD
:10139000CAF1050003A942180C23DDE90610FFF786
:1013A00076FE0AB0BDE8F09F2DE9F04F89B0824685
:1013B000894617469846DDF84CB00120079000207A
:1013C0000490059006900124002500BF00264FEAF6
:1013D000C9604FEA10693846414608F063FF054688
:1013E000284608F0D3FF3A464346CDE9000109F00C
:1013F00051F9CDE902010022FE4BDDE9020109F0BD
:1014000015F8CDE9000108F07DFF064606E004EB83
:10141000840044000798401CC0B207900A20B5FB26
:10142000F0F0B0FBF4F00028F1D142F21070B5FBFF
:10143000F0F00A21B0FBF1F201FB12008DF8100070
:101440004FF47A70B5FBF0F0B0FBF1F201FB120043
:101450008DF811006420B5FBF0F0B0FBF1F201FB58
:1014600012008DF812000A20B5FBF0F0B0FBF1F28B
:1014700001FB12008DF813002E208DF815004FF49B
:101480007A70B6FBF0F0B0FBF1F201FB12008DF8C0
:1014900016006420B6FBF0F0B0FBF1F201FB120085
:1014A0008DF817000A20B6FBF0F0B0FBF1F201FB5B
:1014B00012008DF818000A20B6FBF0F100FB116055
:1014C0008DF8190000210BF1060004AA1154002424
:1014D00005E004A8005D303004A90855641C0A2CFE
:1014E000F7DB2E208DF8150000210BF1060004AA71
:1014F00011541298C0F1050004A942180C2351465A
:101500004846FFF7C4FD09B0BDE8F08F2DE9F04172
:1015100005460F46164600BF05EB45014906080E75
:101520003946FFF7E6FB00240BE006F1100101EB62
:101530004101B14A02EB4101085D0121FFF745FB82
:10154000641C062CF1DBBDE8F0812DE9F041054675
:101550000F46164600BF05EB45014906080E394601
:10156000FFF7C7FB002409E006EB4601A24A02EBA5
:101570004101085D0121FFF728FB641C062CF3DB09
:10158000BDE8F0812DE9F047054689461646344608
:10159000002C22DA6442642094FBF0F100FB11403D
:1015A0000A2190FBF1F0C7B20A2094FBF0F100FB96
:1015B000114000F0FF080D2249462846FFF7C5FFFD
:1015C000691CC8B23A464946FFF7A0FFA91CC8B239
:1015D00042464946FFF79AFF20E0642094FBF0F171
:1015E00000FB11400A2190FBF1F0C7B20A2094FBE6
:1015F000F0F100FB114000F0FF080B22494628469D
:10160000FFF7A3FF691CC8B23A464946FFF77EFFC1
:10161000A91CC8B242464946FFF778FFBDE8F087EB
:101620002DE9F04705468A4616463446002C2DDA49
:1016300064420D2251462846FFF787FF0A2094FB9B
:10164000F0F100FB1140C7B20A2094FBF0F00A2130
:1016500090FBF1F201FB120000F0FF08642094FB04
:10166000F0F000F0FF09E91CC8B23A465146FFF716
:101670004DFFA91CC8B242465146FFF747FF691CFF
:10168000C8B24A465146FFF741FF2BE00B225146B4
:101690002846FFF75AFF0A2094FBF0F100FB1140A7
:1016A000C7B20A2094FBF0F00A2190FBF1F201FB93
:1016B000120000F0FF08642094FBF0F000F0FF0936
:1016C000E91CC8B23A465146FFF720FFA91CC8B230
:1016D00042465146FFF71AFF691CC8B24A465146B6
:1016E000FFF714FFBDE8F0872DE9F05F05468B4654
:1016F00016463446002C00DA64424FF47A7094FBAC
:10170000F0F0C7B24FF47A7094FBF0F100FB114097
:10171000642190FBF1F000F0FF08642094FBF0F1ED
:1017200000FB11400A2190FBF1F000F0FF090A20B4
:1017300094FBF0F100FB114000F0FF0A3A465946D5
:101740002846FFF7E3FE691CC8B242465946FFF738
:10175000DDFEA91CC8B24A465946FFF7D7FEE91C70
:10176000C8B252465946FFF7D1FEBDE8F09F2DE9B9
:10177000F05F05460E46144642F21070B4FBF0F0DE
:10178000C7B242F21070B4FBF0F100FB11404FF40D
:101790007A71B0FBF1F000F0FF080846B4FBF0F1FD
:1017A00000FB11406421B0FBF1F000F0FF09642060
:1017B000B4FBF0F100FB11400A21B0FBF1FA0A2062
:1017C000B4FBF0F100FB114B3A4631462846FFF7D7
:1017D0009DFE691CC8B242463146FFF797FEA91C20
:1017E000C8B24A463146FFF791FEE91CC8B25246DC
:1017F000314603E00088C340A6B00008FFF786FE2C
:10180000291DC8B25A463146FFF780FEBDE8F09F59
:1018100008B50121092001F03FFD01215B4801F0DD
:1018200050FB4FF44050ADF8000010208DF803003D
:1018300003208DF802006946554801F071FA4FF413
:101840004051534801F019FB4FF4487005F049FB33
:101850000021AE20FFF7B9F900210846FFF7B5F9DE
:1018600000211020FFF7B1F900214020FFF7ADF96A
:101870000021B020FFF7A9F900218120FFF7A5F989
:101880000021FF20FFF7A1F90021A120FFF79DF91A
:101890000021A620FFF799F90021A820FFF795F96C
:1018A00000213F20FFF791F90021C820FFF78DF9B3
:1018B0000021D320FFF789F900210846FFF785F9B9
:1018C0000021D520FFF781F900218020FFF77DF965
:1018D0000021D820FFF779F900210520FFF775F9DD
:1018E0000021D920FFF771F90021F120FFF76DF9F0
:1018F0000021DA20FFF769F900211220FFF765F9CE
:101900000021DB20FFF761F900213020FFF75DF9AE
:1019100000218D20FFF759F900211420FFF755F918
:101920000021AF20FFF751F908BD2DE9F0418046B5
:101930000E461546002731464046FFF7DAF90024E7
:101940000AE0144A02EB8511085D0121FFF73DF919
:10195000781CC7B2601CC4B2102CF2DB701CC1B280
:101960004046FFF7C6F900240CE06900491C094A0B
:1019700002EB4111085D0121FFF727F9781CC7B27E
:10198000601CC4B2102CF0DBBDE8F0810002300016
:10199000000C01402E00002008B540F225513048CF
:1019A00002F0ACFD40B12E4802F028FDC0B200901C
:1019B0000121684603F040F808BD10B586B0044622
:1019C0000121082001F068FC0121880401F071FC6C
:1019D000234802F0D3FB4FF48060ADF810000320E1
:1019E0008DF8120018208DF8130004A91D4801F08D
:1019F00097F94FF40060ADF8100004208DF8130043
:101A000004A9184801F08CF900940020ADF80400F6
:101A1000ADF80600ADF80800ADF80C000C20ADF8EC
:101A20000A0069460E4802F0ECFB01210C4802F066
:101A300074FC012240F22551094802F07AFC27206B
:101A40008DF8140002208DF8150003208DF8160083
:101A500001208DF8170005A801F099F806B010BD17
:101A600000480040000C01407FB505460C460121AE
:101A7000022001F01EFCADF80850ADF80440002033
:101A8000ADF80A00ADF8060001A9144801F03CFDCC
:101A900001221146114802F0AEF81D208DF8000019
:101AA00000208DF8010003208DF8020001208DF840
:101AB0000300684601F06BF80121084802F080F845
:101AC0007FBD10B50121054802F043FB28B101217B
:101AD000024802F04FFB02F0EBFE10BD0004004094
:101AE0007FB505460C460121042001F0E2FBADF86C
:101AF0000850ADF804400020ADF80A00ADF806002B
:101B000001A9644801F000FD01221146614802F07C
:101B100072F81E208DF8000000208DF801000320CF
:101B20008DF8020001208DF80300684601F02FF8BF
:101B30000121584802F044F87FBD10B501215548F5
:101B400002F007FB002862D00121524802F012FB8C
:101B5000514A52480178524805F068FF50480078D1
:101B600060B901204F49086000204F49C1F8B00119
:101B70004C49103108604D49C1F88C014848007843
:101B800001280DD100204749086001204649C1F8CD
:101B9000B00100204349103108604449C1F88C016C
:101BA0003F48007802280DD100203E4908603E4998
:101BB000C1F8B00101203B491031086000203B49C9
:101BC000C1F88C013648007803280CD10020354933
:101BD00008603549C1F8B001324910310860012070
:101BE0003249C1F88C0132480088401C80B230492B
:101BF0000880B0F5FA7F0ADB002008802D480068D5
:101C0000401C2C4908600846006800F091FD10BD9A
:101C100008B501211C2001F03FFB4FF40060ADF836
:101C2000000010208DF8030003208DF802006946A3
:101C3000214801F075F84FF48050ADF800001020F5
:101C40008DF8030003208DF8020069461A4801F060
:101C500067F84FF40040ADF8000010208DF8030045
:101C600003208DF802006946134801F059F8082056
:101C7000ADF8000010208DF8030003208DF802005D
:101C800069460E4801F04CF841F61F411320FFF75A
:101C900027FF08BD000800407400002070000020ED
:101CA00071000020AC01214200002142008021424D
:101CB000780000207801002000080140000C01405D
:101CC0000146CA1701EB92729210A1EB820292B9FF
:101CD000642091FBF0F200FB121050B94FF4C87071
:101CE00091FBF0F200FB121008B9012070470020B0
:101CF000FCE70120FAE70020F8E72DE9F05F06464F
:101D00000F4690469946DDE90AAB002440F2B270D6
:101D1000864203DB40F63300864202DD0120BDE847
:101D2000F09F40F2B2750AE02846FFF7C9FF10B1F4
:101D3000FE48044401E0FE480444681C85B2B542F4
:101D4000F2DB781EC7B2002510E0FA48405D40F291
:101D5000A321484304EBC0143046FFF7B1FF18B18C
:101D6000012D01D1F4480444681C85B2BD42ECDB6E
:101D7000A8F1010040F2A321484304EBC014C9EBD1
:101D80004910C0EB092004EB0014CAEB0A1004EB65
:101D900080045C4401214FF0C05001F08AFA012018
:101DA00002F09FFC204602F016FC02F047FC0020E7
:101DB000B5E7F0B503460C461546642093FBF0F0FA
:101DC000C6B2642093FBF0F700FB1730C1B2132EAC
:101DD00002DD01F16400C1B20846CF1701EB97772D
:101DE00001EBA707BAB2072092FBF0F700FB172020
:101DF00082B25719601EDFF844C31CF80000384453
:101E000082B2CF1701EB9777BF10A1EB87071FB9FD
:101E1000032C01DA501E82B2072092FBF0F700FB80
:101E20001720C0B2F0BD1CB5C5488088C449498898
:101E3000CDE90010C24803880C22114640F2E4703C
:101E400005F0A4FCBF490860BD484089BC49098928
:101E5000CDE90010BA48C3880C22114640F2E47064
:101E600005F094FCB8490860B548008AB449C989AE
:101E7000CDE90010B24883890C22114640F2E4708B
:101E800005F084FCB1490860AD48C08AAC49898A34
:101E9000CDE90010AA48438A0C22114640F2E470B2
:101EA00005F074FCAA4908601CBD7CB504460D46CB
:101EB000012C7DD1032DFCD1FEF74BFF0023A5A201
:101EC00019461846FFF7FEF8A6480078A6490860AC
:101ED000A44840784860A3488078886071E000207A
:101EE000FEF786FDA14908709F48806800909E48D3
:101EF00043689FA10268A34806F0F6FC1023A14A9C
:101F000002210020FFF7C3F89848007801281ED16D
:101F10009D480078401C9C490870084600780328BA
:101F200001DB002008709849097801EB410130225B
:101F300002EBC101C8B2102394A20221FFF7A7F857
:101F40009148007892490870642004F0CAFF8748DD
:101F5000007803280AD184488B49097850F8210079
:101F6000401C8149884A127841F822007F48007855
:101F700004280AD17C488449097850F82100401E81
:101F80007949814A127841F82200774805F022FC0D
:101F900076480078022814D1FEF7DBFE724880688C
:101FA00071494968CDE900106F480C22114600E0E4
:101FB00009E0036840F2E57005F0E8FB7549086048
:101FC00000E08CE700BF7CBD38B504460D46022C0E
:101FD0007ED1032DFCD1FEF7BCFE00236EA2194674
:101FE0001846FFF76FF81FE10020FEF701FD5F497B
:101FF000087053488088009051484388028869A13E
:10200000604806F071FC10235E4A00210846FFF785
:102010003EF84B484089009049480389C28866A130
:10202000584806F061FC1023564A02210020FFF7B1
:102030002EF84348008A00904148C389828963A1F1
:10204000504806F051FC10234E4A04210020FFF7AF
:102050001EF83B48C08A00903948838A428A60A1B2
:10206000484806F041FC1023464A06210020FFF7AD
:102070000EF83E480078012828D15E480078401CC0
:102080005C4908700846007803280CDB00200870C3
:1020900059480078401C58490870084600780428C0
:1020A00001DB00200870544A12785206110E514A82
:1020B000127802EB4202382303EBC202D0B21023A3
:1020C00032A2FEF7E4FF642004F00BFF274800E093
:1020D000ACE00078032816D14748007800EB4000B8
:1020E000174901EB40004349097830F81100401CC2
:1020F0004149097801EB4101114A02EB41013D4A96
:10210000127821F8120019480078042876D13A484C
:10211000007800EB40000A4901EB4000354909789E
:1021200030F81100401E3449097868E00085E2016A
:102130008033E101E8C2000880510100DCC20008E0
:10214000C0000020800000208400002088000020C3
:102150008C000020CFB5CDB3CAB1BCE4C9E8D6C36A
:102160000000000022060020D80000202C000020E3
:10217000535953543A2532642D2532642D25326447
:10218000000000002C060020E40000202A000000CF
:10219000E500002078010020B6A8CAB1CAB1BCE4AD
:1021A0000000000054494D45313A2532642D253256
:1021B000642D25326400000054494D45323A2532E1
:1021C000642D2532642D25326400000054494D45AC
:1021D000333A2532642D2532642D25326400000007
:1021E00054494D45343A2532642D2532642D25322B
:1021F00064000000E7000020E600002008E001EB9A
:102200004101254A02EB4101244A127821F81200CB
:1022100023480078022807D1002021490870FFF7E1
:1022200002FEFEF796FD00E0DEE600BF38BD7CB59D
:1022300005460E4614461B480078A04229D01A488D
:1022400084784CB18078009017484378027817A1C1
:102250001B4806F049FB06E013484378027819A1B1
:10226000174806F041FB1023154A31462846FEF771
:102270000EFF0D4880780C494978CDE900100A48D6
:1022800003780C22114640F2E47005F07FFA114900
:102290000860044804707CBDC0000020E7000020F6
:1022A0002C000020EA0000202206002054696D6501
:1022B0003A2532642D2532642D2532640000000059
:1022C0002C06002054696D653A2532642D25326450
:1022D0002D3030007C0000201CB50446012C39D183
:1022E000FEF737FD34E00020FEF782FB04460120B4
:1022F0002749284B0622CDE900102146264805F043
:10230000AFFB25480088002819DB234800880528F2
:1023100015DA04202149224B2246CDE90010002184
:102320001D48008805F0D5F921461B480088FFF7B5
:10233000BCFD214618480088FFF746FE08E0032C44
:1023400006D1FEF706FD0621002005F0B6F800E0F4
:10235000C9E700BF1CBD2DE9F04104460E461746F3
:102360001D4600230FA231462046FEF7ABFE04F1C6
:102370004001C8B210230EA23146FEF788FE0023AA
:102380002A46314604F14800FEF79CFEBDE8F08184
:1023900000010020240100203C010020F00000206A
:1023A00000000020B9A4D7F7C4A3CABD00000000F4
:1023B0003A00000070B5002400254FF400415E484B
:1023C00000F05BFD4FF480415B4800F058FD00BF1A
:1023D0004FF40041584800F036FD0028F8D10120A4
:1023E00004F05BFD002519E04FF48041524800F0F5
:1023F00044FD6400012004F050FD4FF480414E483C
:1024000000F03DFD4FF400414B4800F01CFD00B1D1
:10241000641C012004F041FD681CC5B2182DE3DBEB
:102420004FF48041444800F028FD84F4000401206A
:1024300004F033FD4FF480413F4800F020FD0120BF
:1024400004F02BFD204608F061FC0646304608F0FB
:102450003DFC70BD10B5FFF7ADFF044607F096FFD9
:10246000364A03C20022364B344903C907F0C2FD85
:10247000344A03C2344A354B324903C907F0BAFD26
:10248000304A03C2324903C910BD08B501211020EA
:1024900000F002FF4FF48040ADF8000010208DF8EE
:1024A000030003208DF802006946234800F038FC41
:1024B0004FF40040ADF8000004208DF80300032025
:1024C0008DF8020069461C4800F02AFCFFF7C2FFA5
:1024D00008BD70B5FFF76EFF064607F057FF174AB5
:1024E00003C20022164B154903C907F083FD134AA6
:1024F00003C2154A154B114903C907F07BFD0F4A6A
:1025000003C210480D490CC803C908F08DF80DD25C
:102510000A48D0E900100F4AC2E9001009480D49E5
:102520000CC803C908F0A8F90A4A03C2094830C810
:102530002946204670BD00000010014048010020DF
:1025400000005940500100200AD7A3703D0A1D40E9
:1025500068010020580100202DE9F04105460E4693
:10256000284606F036FB87B2012E16D1710360486B
:1025700000F069FC88B900240CE000BF40215D48F0
:1025800001F0A6FF0028F9D0295D5A4801F032FF7A
:10259000601C84B2BC42F0DD11E086B900240CE07E
:1025A00000BF4021534801F093FF0028F9D0295D76
:1025B000504801F01FFF601C84B2BC42F0DD0A20CD
:1025C00004F08FFCBDE8F08110B586B004462246C9
:1025D00049A101A806F088F9002101A8FFF7BCFF76
:1025E00006B010BD00B585B00121480400F061FEC1
:1025F0000121042000F050FE0420ADF8100003205B
:102600008DF8120018208DF8130004A93C4800F042
:1026100087FB0820ADF8100004208DF8130004A9F2
:10262000374800F07DFB4FF4165000900020ADF8C5
:102630000400ADF80600ADF80800ADF80C000C2061
:10264000ADF80A0069462B4801F0DBFD012129485D
:1026500001F063FE0121102000F01EFE4FF4005037
:10266000ADF8100028208DF8130004A9204800F0D0
:1026700057FB1F20FFF7A8FF642004F032FC05B0D1
:1026800000BD30B585B004460D4622461DA1684602
:1026900006F02AF929466846FFF75EFF05B030BD0F
:1026A00030B585B004460D460A2C09DA224617A13A
:1026B000684606F019F929466846FFF74DFF14E011
:1026C000642C09DA224614A1684606F00DF9294661
:1026D0006846FFF741FF08E0224612A1684606F06F
:1026E00003F929466846FFF737FF05B030BD000003
:1026F000001001400044004041463A25640D0A00A4
:102700000008014025730D0A0000000041373A30EF
:1027100030303025640D0A0041373A3030302564BE
:102720000D0A000041373A303025640D0A000000E0
:1027300070B50646002400253A48066000683A490C
:10274000B0FBF1F439480088A0423CD037490C80F6
:1027500040F2B27510E02846FFF7B2FA40B1B4F586
:10276000B77F02D3A4F5B77404E0681C85B206E015
:10277000A4F26D14681C85B2B4F5B67FEBD800BF27
:102780002B488580002516E029498888FFF798FAAC
:1027900030B1012D04D11D2C01D31D3C09E00CE00A
:1027A0002448405DA04203D82248405D241A00E03E
:1027B00003E0681C85B21C2CE6D200BF681C1C49D3
:1027C0008871601CC871174800681749B0FBF1F2A6
:1027D00001FB12044FF46160B4FBF0F0144908707F
:1027E0004FF46160B4FBF0F100FB11403C21B0FB01
:1027F000F1F00F4948704FF46160B4FBF0F100FB59
:1028000011403C21B0FBF1F201FB12000849887035
:102810000B46DA7999799888FFF7CBFA0449087260
:10282000002070BD80010020805101007C0100204B
:1028300022060020E8C2000830B589B005460C46E3
:102840000121C80200F028FD0121042000F024FD30
:102850004FF48070ADF8200018208DF8230003207D
:102860008DF8220008A97C4800F05AFAADF81850FB
:10287000ADF814400020ADF81A00ADF8160005A917
:10288000764800F041FE7020ADF804000120ADF85C
:1028900006000020ADF80A00ADF80C0001A96F4851
:1028A00000F06FFE01216D4801F096F908216B4898
:1028B00001F0B6FA0121694801F082FA0121674866
:1028C00001F07EF909B030BD30B585B005460C4643
:1028D0000121084600F0EDFC0121042000F0DCFCA1
:1028E0000120ADF8100028208DF8130004A95A48E3
:1028F00000F016FA0121584800F0C1FA0220ADF8A4
:10290000100010208DF8130004A9534800F008FAB5
:102910000221514800F0B3FAADF80850ADF8044078
:102920000020ADF80A00ADF8060001A94FF0804084
:1029300000F0EAFD00204A49088048800120888094
:102940000020C88008814FF0804001F070F81C2002
:102950008DF8000002208DF8010000208DF80200A3
:1029600001208DF80300684600F011F901220321CF
:10297000900701F040F90121880701F021F905B025
:1029800030BD10B53748007800F0800000284FD1E6
:102990000121880701F0DDFBD0B13248007800F05A
:1029A0004000A8B12F48007800F03F003F280AD12E
:1029B0002C48007840F080002A4908704FF6FF70DC
:1029C0002949088004E027480078401C2549087000
:1029D0000221480701F0BDFB50B32248007800F007
:1029E000400088B11F48007840F080001D49087001
:1029F0004FF0804001F08EFB1B49088000214FF012
:102A0000804001F08FFA13E0002016490870164943
:102A1000088000214FF0804001F066FB11480078EB
:102A200040F040000F4908700221480701F07AFA8F
:102A300003214FF0804001F09DFB10BD10B5022135
:102A4000054800F01AFA142004F027FA022102487F
:102A500000F015FA10BD000000080140002C0140F4
:102A600040060020880100208A010020014600BFA6
:102A7000704700BF314A128802F04002002AF9D0A4
:102A8000C2B22E4B1B1D1A80704710B586B004468B
:102A9000012144F2040000F0FFFB4FF40070ADF898
:102AA000140003208DF8160018208DF8170005A9D2
:102AB000234800F035F94FF48060ADF8140004208D
:102AC0008DF8170005A91E4800F02AF925208DF879
:102AD000000003208DF801008DF8020001208DF820
:102AE0000300684600F053F801940020ADF8080098
:102AF000ADF80A00ADF80C00ADF810000C20ADF8F0
:102B00000E0001A90D4801F07CFB012240F2255185
:102B10000A4801F00EFC0121084801F0FEFB06B056
:102B200010BD10B540F22551044801F0E7FC18B182
:102B3000024801F063FCC4B210BD0000003801403F
:102B4000000801400948804709480047FEE7FEE7C2
:102B5000FEE7FEE7FEE7FEE7FEE7FEE7FEE7FEE74D
:102B600004480549054A064B704700003308000831
:102B70003101000870080020700E0020700A00204B
:102B8000700A002031490143314A1160704770B525
:102B9000002100230F22C47804B32D4C246804F4D0
:102BA000E064C4F5E064210AC1F10403CA4044783A
:102BB00004FA03F18478144021430901254C067876
:102BC000A155047804F01F050124AC4005786D116F
:102BD000AD0005F1E025C5F8004109E0047804F0F6
:102BE0001F050124AC401C4D0678761145F826409F
:102BF00070BD1A4A0A400243154B1B1F1A607047EA
:102C000039B1134A121D12680243114B1B1D1A6081
:102C100006E00F4A121D126882430D4B1B1D1A60FD
:102C20007047042808D14FF0E021096941F0040100
:102C30004FF0E022116107E04FF0E021096921F037
:102C400004014FF0E0221161704700000000FA0516
:102C50000CED00E000E400E080E100E080FFFF1FF9
:102C600010B50446CC48844208D10121042000F06C
:102C70002DFB0021042000F029FB46E0C7488442D8
:102C800008D10121082000F021FB0021082000F0DC
:102C90001DFB3AE0C248844208D10121102000F017
:102CA00015FB0021102000F011FB2EE0BD488442EE
:102CB00008D10121202000F009FB0021202000F094
:102CC00005FB22E0B848844208D10121402000F0F1
:102CD000FDFA0021402000F0F9FA16E0B3488442E2
:102CE00008D10121802000F0F1FA0021802000F0BD
:102CF000EDFA0AE0AE48844207D10121801500F0C8
:102D0000E5FA0021A01500F0E1FA10BD10B501218F
:102D1000084600F0DBFA0021012000F0D7FA10BDD0
:102D20002DE9F04102460025002600200023002462
:102D3000002791F803C00CF00F0591F803C00CF0C8
:102D4000100CBCF1000F03D091F802C04CEA05054D
:102D500091F800C0BCF1000F31D0146800202BE0C6
:102D60004FF0010C0CFA00F3B1F800C00CEA0306B6
:102D70009E4220D183004FF00F0C0CFA03F7BC43A6
:102D800005FA03FC4CEA040491F803C0BCF1280FD7
:102D900006D14FF0010C0CFA00FCC2F814C00AE096
:102DA00091F803C0BCF1480F05D14FF0010C0CFAAB
:102DB00000FCC2F810C0401C0828D1D31460B1F840
:102DC00000C0BCF1FF0F34DD546800202EE000F19C
:102DD000080C4FF0010808FA0CF3B1F800C00CEA37
:102DE00003069E4221D183004FF00F0C0CFA03F72B
:102DF000BC4305FA03FC4CEA040491F803C0BCF19F
:102E0000280F05D100F1080C08FA0CF8C2F814805C
:102E100091F803C0BCF1480F07D100F1080C4FF046
:102E2000010808FA0CF8C2F81080401C0828CED31C
:102E30005460BDE8F0814FF6FF710180022181707E
:102E40000421C17070470246002093680B400BB10B
:102E5000012000E0002070470146886880B270477A
:102E600002460020D3680B400BB1012000E0002097
:102E700070470146C86880B2704701617047416180
:102E800070470AB1016100E041617047C16070475D
:102E90004FF480320A438261816182618269826972
:102EA000704702460020434B18684FF68073184065
:102EB00040EA021008433F4B186070473E49C86122
:102EC0007047F0B50A46002300240021002500F0D9
:102ED0000046B6F1004F02D1364EF16901E0354EA1
:102EE0007168C0F3034583B200F44016B6F5401F85
:102EF00008D121F070612F4E766826F070662D4F54
:102F00007E6012E000F48016B6F5801F06D103261D
:102F100006FA05F4A14341F0706106E0460D360162
:102F200003FA06F6B14341F0706122B1460D360155
:102F300003FA06F6314300F00046B6F1004F02D125
:102F40001C4EF16101E01B4E7160F0BD30B50022F6
:102F50008B071C0F0F2303FA04F2164B08338C1057
:102F600053F824309343134C08348D1044F8253023
:102F700023468C1053F824308C07240F00FA04F4F5
:102F800023430C4C08348D1044F8253030BD0A49D9
:102F9000DC3108607047000000080140000C01406F
:102FA000001001400014014000180140001C0140C5
:102FB000002001400000014000002042DF4800687E
:102FC00040F00100DD49086008464068DC490840DF
:102FD000DA49486008460068DA490840D74908607D
:102FE0000846006820F4802008600846406820F405
:102FF000FE0048604FF41F0088607047CF490968A1
:1030000021F48031CD4A11601146096821F48021F4
:103010001160B0F5803F03D0B0F5802F0ED106E0EF
:10302000C649096841F48031C44A116007E0C349C8
:10303000096841F4A021C14A116000E000BF00BF4F
:10304000704710B501460022002300204A11012AD2
:1030500002D1BA4C236806E0022A02D1B74C236A97
:1030600001E0B64C636A01F01F02012494401C4049
:103070000CB1012000E0002010BD38B50020009008
:103080000024002500BF3120FFF7DBFF0546009834
:10309000401C00900098B0F5A06F01D0002DF2D038
:1030A0003120FFF7CEFF08B1012400E000242046C4
:1030B00038BD01460020A14A106820F0F80040EA1F
:1030C000C10010607047A0490860704702460020A8
:1030D0009A4B586820F47C1042EA01031843974B3E
:1030E0005860704798490866704701460020934A27
:1030F000506820F003000843506070478F484068D4
:1031000000F00C007047014600208C4A506820F007
:10311000F00008435060704701460020874A50681D
:1031200020F4E06008435060704701460020834A65
:10313000506820F4605040EAC1005060704729B1E7
:103140007E4A527A02437D4B5A7204E07B4A527A9D
:1031500082437A4B5A7270477B49D8310860704776
:1031600001460020754A506820F4404008435060F2
:1031700070470021714A20321170704A82F8201085
:10318000012802D004280AD104E001216B4A203230
:10319000117005E00521694A2032117000E000BF7E
:1031A00000BF70476949086070476449096A014374
:1031B000624A11627047654944390860704730B50A
:1031C00000210022002400235C4D6D6805F00C01F5
:1031D00021B1042905D0082923D105E05C4D056003
:1031E00022E05B4D05601FE0544D6D6805F47012E0
:1031F000524D6D6805F48034022505EB92421CB9EE
:10320000544D554305600BE04C4D6D6805F4003599
:103210001DB1504D5543056002E04D4D55430560CD
:1032200002E04B4D056000BF00BF444D6D6805F0E6
:10323000F0010909484D6B5C0568DD4045603F4D74
:103240006D6805F4E061090A434D6B5C4568DD403B
:1032500085603A4D6D6805F46051C90A3E4D6B5C5E
:103260004568DD40C560354D6D6805F44041890B0A
:103270003A4D6B5CC568B5FBF3F5056130BD29B10E
:103280002E4A526902432D4B5A6104E02B4A52697F
:1032900082432A4B5A61704729B1284A92690243F6
:1032A000264B9A6104E0254A92698243234B9A6136
:1032B000704729B1214AD2690243204BDA6104E008
:1032C0001E4AD26982431D4BDA61704729B11B4AFD
:1032D000D2680243194BDA6004E0184AD26882438C
:1032E000164BDA60704729B1144A12690243134B36
:1032F0001A6104E0114A12698243104B1A61704747
:1033000012494039086070470F49C86470470B493B
:10331000C87170470948406A40F0807007494862A8
:10332000704701460020054A92680A400AB1012010
:1033300000E0002070470149887270470010024089
:103340000000FFF8FFFFF6FE000042428004424208
:1033500000127A0000093D00BA010020CA010020D5
:1033600010B50446FE48844208D10121C014FFF77D
:10337000ADFF0021E014FFF7A9FFC4E0B4F1804FD6
:1033800008D101210846FFF7AEFF00210120FFF719
:10339000AAFFB8E0F348844208D101210220FFF7D8
:1033A000A2FF00210220FFF79EFFACE0EE4884421E
:1033B00008D101210420FFF796FF00210420FFF728
:1033C00092FFA0E0E948844208D101210820FFF7DC
:1033D0008AFF00210820FFF786FF94E0E44884423A
:1033E00008D101211020FFF77EFF00211020FFF7F8
:1033F0007AFF88E0DF48844208D101212020FFF7CE
:1034000072FF00212020FFF76EFF7CE0DA48844243
:1034100008D101214014FFF759FF00216014FFF784
:1034200055FF70E0D548844209D10121C804FFF757
:103430004DFF00214FF40020FFF748FF63E0D04824
:10344000844209D101210805FFF740FF00214FF414
:103450008010FFF73BFF56E0CA48844209D10121A2
:103460004805FFF733FF00214FF40010FFF72EFF50
:1034700049E0C548844208D101214020FFF733FFCD
:1034800000214020FFF72FFF3DE0C048844208D1D3
:1034900001218020FFF727FF00218020FFF723FF75
:1034A00031E0BB48844208D101218015FFF71BFFA2
:1034B0000021A015FFF717FF25E0B648844209D187
:1034C00001210804FFF702FF00214FF48030FFF7CD
:1034D000FDFE18E0B048844209D101214804FFF7FD
:1034E000F5FE00214FF40030FFF7F0FE0BE0AB4893
:1034F000844208D101218804FFF7E8FE00214FF43F
:103500008020FFF7E3FE10BD00220288944B984212
:103510000ED0994B98420BD0B0F1804F08D0914B10
:10352000984205D0904B984202D0904B984204D1DB
:103530004FF68F731A404B881A438D4B984207D031
:103540008C4B984204D04FF6FF431A40CB881A4365
:1035500002808B8883850B880385814B98420BD032
:10356000854B984208D08B4B984205D08A4B9842A5
:1035700002D08A4B984201D10B7A038601238382C1
:10358000704770B5002400220023058C4FF6FE76AC
:1035900035400584028C8388048B4FF68F752C4050
:1035A000B51E2C400D882C43751E2A400D892A43D8
:1035B0004D882A436A4DA8420BD06F4DA84208D0CF
:1035C000744DA84205D0744DA84202D0734DA84254
:1035D00013D14FF6F7752A404D892A434FF6FB75F4
:1035E0002A408D882A434FF6FF652B404FF6FF5542
:1035F0002B408D892B43CD892B4383800483CD8839
:103600008586028470BD70B5002400220023058CDD
:103610004FF6EF7635400584028C8388048B48F69C
:10362000FF752C404FF6FF452C400D884FF6FF7676
:1036300006EA05252C434FF6DF752A400D8906EA78
:1036400005152A434D8806EA05152A43444DA8422C
:1036500002D0494DA8421DD14FF67F752A404D89B1
:103660004FF6FF7606EA05152A434FF6BF752A4046
:103670008D8806EA05152A434FF6FF352B404FF299
:10368000FF752B408D8906EA85052B43CD8906EA17
:1036900085052B4383800483CD880587028470BD14
:1036A00070B5002400220023058C4FF6FF663540DC
:1036B0000584028C8388848B4FF68F752C404FF6DF
:1036C000FC752C400D882C434FF6FF552A400D8980
:1036D0004FF6FF7606EA05252A434D8806EA0525BA
:1036E0002A431F4DA84202D0234DA8421DD14FF2BC
:1036F000FF752A404D894FF6FF7606EA05252A43D5
:103700004FF6FF352A408D8806EA05252A434EF6F6
:10371000FF752B404DF6FF752B408D8906EA051588
:103720002B43CD8906EA05152B4383808483CD88FE
:103730008587028470BD70B5002200230024058CAB
:103740004EF6FF7635400584038C8488828B48F6DC
:10375000FF752A404FF6FF452A400D8820E0000003
:10376000002C01400004004000080040000C004014
:10377000001000400014004000340140004C0140A3
:10378000005001400054014000180040001C00405F
:10379000002000400040014000440140004801403A
:1037A0004FF6FF7606EA05252A434DF6FF752B40B6
:1037B0000D8906EA05352B434D8806EA05352B436E
:1037C000FA4DA84202D0FA4DA84208D14BF6FF7537
:1037D0002C408D894FF6FF7606EA85152C438480B0
:1037E0008283CD88A0F84050038470BD828B4FF255
:1037F000FF331A408283828B4FF6FF7303EA012363
:103800001A4382837047F0B50C461546002200210A
:103810000026078C4EF6FF7C07EA0C070784828B94
:10382000018C4FF6FF7707EA043640F6FF473A402F
:103830004FF6FF7707EA05273A434FF6FF7707EA87
:1038400003373A43D94FB8420ED0D94FB8420BD0C4
:10385000B0F1804F08D0D74FB84205D0D64FB8420C
:1038600002D0D64FB84206D14DF6FF77394046F424
:103870008057394305E047F6FF57394044F48057F5
:10388000394382830184F0BD828B4FF6F3731A4073
:103890008283828B0A4382837047F0B50C461546BB
:1038A000002200210026078C4FF6FF6C07EA0C0768
:1038B0000784828B018C4FF6FF7707EA04264FF6C8
:1038C0000C773A404FF6FF7707EA03172F433A4346
:1038D000B64FB8420ED0B64FB8420BD0B0F1804FC1
:1038E00008D0B44FB84205D0B34FB84202D0B34F5E
:1038F000B84206D14FF6FF57394046F48077394336
:1039000005E04FF2FF57394044F480773943828312
:103910000184F0BD028B4FF2FF331A400283028B09
:103920004FF6FF7303EA01231A4302837047F0B591
:103930000C461546002200210026078C4FF6EF7C2E
:1039400007EA0C070784028B018C4FF6FF7707EA22
:10395000041640F6FF473A404FF6FF7707EA033771
:103960003A434FF6FF7707EA05273A438F4FB842AD
:103970000ED08F4FB8420BD0B0F1804F08D08D4F92
:10398000B84205D08C4FB84202D08C4FB84206D115
:103990004FF6DF77394046F01007394305E04FF620
:1039A0005F77394044F01007394302830184F0BD4A
:1039B000028B4FF6F3731A400283028B0A43028391
:1039C0007047F0B50C46154600220021068C4FF6D4
:1039D000FE773E400684028B018C4FF60C76324017
:1039E0007E1C06EA03162E433243704EB0420ED0C0
:1039F0006F4EB0420BD0B0F1804F08D06D4EB04248
:103A000005D06D4EB04202D06C4EB04206D14FF69A
:103A1000FD76314044F00106314305E04FF6F5767E
:103A2000314044F00106314302830184F0BD70B59A
:103A300005460C465D4885420ED05D4885420BD058
:103A4000B5F1804F08D05B48854205D05A48854281
:103A500002D05A48854200D100E000BF208850B90A
:103A60002389A28861882846FFF7ABFFE1882846B2
:103A7000FFF79EFF25E0208804280AD12389A28829
:103A800061882846FFF753FFE1882846FFF742FF89
:103A900017E0208808280AD12389A288618828464F
:103AA000FFF7FBFEE1882846FFF7EEFE09E02389D9
:103AB000A28861882846FFF7A6FEE1882846FFF71E
:103AC00095FE70BD2DE9F04105460C460026012704
:103AD000608808B9022600E00026A088012801D1EC
:103AE000022700E001272088A0B92389A2886188E5
:103AF0002846FFF766FFE1882846FFF759FF23892C
:103B00003A4631462846FFF712FFE1882846FFF77C
:103B100001FF13E02389A28861882846FFF707FF89
:103B2000E1882846FFF7F6FE23893A4631462846C3
:103B3000FFF747FFE1882846FFF73AFFBDE8F0812D
:103B40000A884B881A438B881A43CB881A430B89FF
:103B50001A434B891A438B891A43A0F844207047B3
:103B60004FF6FF71818000210180C1804180017288
:103B700070470021018041808180C18001814181A5
:103B80008181C181704700210180418001218180B4
:103B90000021C18001817047002101804180818026
:103BA000C18001814181818170470000002C01406A
:103BB000003401400004004000080040000C0040B8
:103BC00021B1028842F00102028004E002884FF62F
:103BD000FE731A400280704731B1B0F8442042F4BD
:103BE0000042A0F8442005E0B0F84420C2F30E02E1
:103BF000A0F8442070471AB183890B43838102E007
:103C000083898B43838170478182704741EA020335
:103C1000A0F8483070471AB183890B43838102E0D2
:103C200083898B438381704701894FF6F872114075
:103C3000018170470A46002101894FF68F731940B0
:103C400011430181704730B504460D462946204690
:103C5000FFF7F0FF208940F00700208130BD2DE9FB
:103C6000F04104460D4616461F46602D06D13B46E0
:103C7000012231462046FFF75AFE05E03B4601226D
:103C800031462046FFF79DFE29462046FFF7D2FF2A
:103C9000208940F007002081BDE8F08130B50C4656
:103CA00000210189C9B24FF6FF7505EA03251543C6
:103CB00025432943018130BD2DE9F04105460E46DB
:103CC00017469846002443463A4631462846FFF7B1
:103CD000E5FF2C894FF6F870044044F007044FF6D6
:103CE0008F70044044F070042C81BDE8F081F0B581
:103CF00004460D4616461F463B4632462946204698
:103D0000FFF7CCFF208940F480402081F0BD018581
:103D1000828270470A46002101884FF68F7319404E
:103D2000114301807047F0B50C4615461E46002130
:103D3000002200230189028B038C4FF6F87739406B
:103D400021434FF6FC473A4040F201173A434FF601
:103D5000DD773B404FF6FF7707EA06172F433B43DB
:103D6000018102830384F0BD0A460021018B4FF6D6
:103D70008F7319401143018370470A460021018B5C
:103D800048F6FF7319404FF6FF7303EA0223194305
:103D9000018370470A460021818B4FF68F731940CB
:103DA0001143818370470A460021818B48F6FF73D7
:103DB00019404FF6FF7303EA0223194381837047CA
:103DC00021B1028842F08002028004E002884FF6AE
:103DD0007F731A400280704721B1828842F004024A
:103DE000828004E082884FF6FB731A40828070471D
:103DF00021B1828842F00802828004E082884FF676
:103E0000F7731A408280704721B1828842F0010224
:103E1000828004E082884FF6FE731A4082807047E9
:103E20000A460021018B4FF6F773194011430183B5
:103E300070470A460021018B4FF2FF7319404FF67D
:103E4000FF7303EA02231943018370470A460021E6
:103E5000818B4FF6F77319401143818370470A46EF
:103E60000021818B4FF2FF7319404FF6FF7303EA75
:103E700002231943818370470A460021018B4FF6C4
:103E8000FB7319401143018370470A460021018BDF
:103E90004FF6FF3319404FF6FF7303EA022319432D
:103EA000018370470A460021818B4FF6FB7319404E
:103EB0001143818370470A460021818B4FF6FF33FF
:103EC00019404FF6FF7303EA0223194381837047B9
:103ED0000A460021018B4FF67F731940114301837D
:103EE00070470A460021018BC1F30E014FF6FF73A4
:103EF00003EA02231943018370470A460021818B9C
:103F00004FF67F7319401143818370470A460021A1
:103F1000818BC1F30E014FF6FF7303EA02231943AD
:103F2000818370470A460021018C4FF6FD731940CA
:103F30001143018470470A460021018C4FF6F77344
:103F400019401143018470470A460021018C4FF645
:103F5000DF7319404FF6FF7303EA0213194301841C
:103F600070470A460021018C4FF67F7319404FF6C7
:103F7000FF7303EA02131943018470470A460021C4
:103F8000018C4FF6FF5319404FF6FF7303EA0223EB
:103F90001943018470470A460021018C4FF2FF73D8
:103FA00019404FF6FF7303EA022319430184704757
:103FB0000A460021018C4DF6FF7319404FF6FF733E
:103FC00003EA023319430184704730B5002301240A
:103FD0008C40A3B2048C9C430484048C02FA01F547
:103FE000ADB22C43048430BD30B5002304248C4092
:103FF000A3B2048C9C430484048C02FA01F5ADB294
:104000002C43048430BD70B50346002000241846BC
:10401000183001258D40ACB21D8CA5431D8409B11B
:10402000082909D100EB6100056825F070050560DD
:104030000568154305600EE00D1FC5F34E052844C5
:10404000056825F4E045056005684FF6FF7606EA49
:1040500002263543056070BD21B1028842F002029C
:10406000028004E002884FF6FD731A400280704718
:1040700021B1028842F00402028004E002884FF677
:10408000FB731A400280704721B1828842F080029F
:10409000828004E082884FF67F731A4082807047E6
:1040A00002884FF6F7731A40028002880A430280A2
:1040B000704782884FF68F731A40828082880A4345
:1040C0008280704702894FF6F8731A400281028994
:1040D0000A430281704702894FF67F731A400281BA
:1040E00002890A4302817047818470478185704745
:1040F000818670470187704781877047A0F840101C
:10410000704702884FF6FF431A40028002880A4334
:10411000028070470146888E70470146088F7047BD
:104120000146888F70470146B1F84000704701464C
:10413000888C70470146088D704702460020138A1C
:104140000B400BB1012000E000207047CA430282FF
:10415000704730B50246002000230024158A05EA86
:104160000103958905EA010413B10CB1012000E0B7
:10417000002030BDCA4302827047000010B50446DB
:10418000FB48844209D101218803FFF79FF80021F1
:104190004FF48040FFF79AF832E0F648844209D1A4
:1041A00001214804FFF79FF800214FF40030FFF78A
:1041B0009AF825E0F048844209D101218804FFF7EC
:1041C00092F800214FF48020FFF78DF818E0EB48BB
:1041D000844209D10121C804FFF785F800214FF47A
:1041E0000020FFF780F80BE0E548844208D1012168
:1041F0000805FFF778F800214FF48010FFF773F8F7
:1042000010BD2DE9F04786B005460E460024A246B3
:1042100000BFA1460027B08900B100BF2F462C8AFD
:104220004CF6FF700440F08804432C82AC894EF6B3
:10423000F3100440B088318908437189084304436E
:10424000AC81AC8A4FF6FF400440B0890443AC8295
:1042500001A8FEF7B4FFC648874202D1DDF810A0DE
:1042600001E0DDF80CA0A88900F4004040B10AEBA1
:10427000CA0000EB0A1031684900B0FBF1F807E012
:104280000AEBCA0000EB0A1031688900B0FBF1F8B4
:104290006420B8FBF0F004012009642101FB1089BF
:1042A000A88900F4004040B1322000EBC900B0FB07
:1042B000F1F000F00700044308E0322000EB0910A1
:1042C0006421B0FBF1F000F00F0004432C8106B034
:1042D000BDE8F0874FF41651016000218180C18054
:1042E00001810C21418100218181704710B5024676
:1042F0000020108A4FF2FF0318400B884C8823439C
:104300008C882343CC8823431843108210BD00219E
:10431000018041808180C180704721B1828942F44F
:104320000052828104E082894DF6FF731A40828137
:104330007047F0B50346002400260025002040F613
:104340006A17B94200D100BF1846C1F3421401F008
:104350001F06012707FA06F5012C01D10C3004E0F5
:10436000022C01D1103000E014301AB107682F433D
:10437000076002E00768AF430760F0BD1AB1838AA7
:104380000B43838202E0838A8B4383827047028AD5
:104390004FF6F0731A400282028A0A430282704783
:1043A00082894FF2FF731A40828182890A43828197
:1043B000704721B1828942F00202828104E0828941
:1043C0004FF6FD731A4082817047028A4FF6DF7301
:1043D0001A400282028A0A430282704721B1028A8D
:1043E00042F48042028204E0028A4BF6FF731A40D4
:1043F00002827047C1F308028280704701468888B4
:10440000C0F308007047818941F001018181704744
:10441000028BD2B20283028B42EA012202837047EE
:10442000028B02F47F420283028B0A4302837047AD
:1044300021B1828A42F02002828204E0828A4FF611
:10444000DF731A408282704721B1828A42F01002E3
:10445000828204E0828A4FF6EF731A4082827047AC
:1044600021B1828A42F00802828204E0828A4FF6F9
:10447000F7731A408282704721B1828942F4004268
:10448000828103E08289C2F30E028281704721B1EA
:10449000828A42F40062828204E0828A4FF2FF73D1
:1044A0001A4082827047828A4FF6FB731A408282DA
:1044B000828A0A438282704721B1828A42F00202D4
:1044C000828204E0828A4FF6FD731A40828270472E
:1044D00002460020B1F5007F00D100BF13880B40D9
:1044E0000BB1012000E00020704701F40072B2F52A
:1044F000007F00D100BFCA430280704770B50246FA
:10450000002400230025002040F66A16B14200D1A5
:1045100000BFC1F3421501F01F03012606FA03F3A1
:10452000012D02D19689334006E0022D02D1168A70
:10453000334001E0968A33400C12012606FA04F457
:104540001688344013B10CB1012000E0002070BD8A
:1045500010B50022002340F66A14A14200D100BF2A
:104560000A1201249440A3B2DC43048010BD000071
:10457000003801400044004000480040004C00402A
:104580000050004029B1504A128802434E4B1A8015
:1045900004E04D4A128882434B4B1A8070474A48C8
:1045A000001D008840F010004749091D0880704731
:1045B0004548001D00884FF6EF7108404249091D2B
:1045C00008807047002140481C300188001F008887
:1045D00041EA0040704700B50246FFF7E0FF100CCB
:1045E000394918310880091D0A80FFF7E1FF00BD35
:1045F00000B50246FFF7D3FFC2F30340324908314A
:104600000880091D0A80FFF7D3FF00BD00B50246F0
:10461000FFF7C5FF100C2C4920310880091D0A80C6
:10462000FFF7C6FF00BD00202749103109880907A0
:10463000080B2549143109880843704700BF2248F8
:10464000001D008800F020000028F8D070471E48A8
:10465000001D00884FF6F77108401B49091D0880AE
:1046600000BF1948001D008800F008000028F8D09D
:10467000704701460020144A121D12880A400AB1F0
:10468000012000E0002070470F49091D098881437F
:104690000D4A121D11807047014600200A4A121D62
:1046A00012880A40D0B2084A12880A4012B108B1F2
:1046B000012000E0002070470349091D098881435B
:1046C000014A121D118070470028004010B50121D9
:1046D0000807FEF708FE00214FF08050FEF703FEAA
:1046E00010BD2A4908627047284908617047014691
:1046F0000020274A106820F0E0000843106070474F
:104700002249A0310860704710B502460020204BB6
:10471000186820F00300104318601E4B1B6843F01C
:1047200004031C4C2360012901D130BF00E020BFED
:10473000184B1B6823F00403164C236010BD14486B
:10474000006840F00400124908600846006840F024
:10475000020008600F48006840F004000D4908603E
:1047600000BF00BF30BF704701460020084A5268B2
:104770000A400AB1012000E000207047044909689E
:1047800041EA8001024A11607047000000000E42B9
:104790000070004010ED00E02DE9FF5F07460D4678
:1047A00093464FF000082E46A9462C46AA4607B16C
:1047B00025B94FF0FF3004B0BDE8F09F4FF000087E
:1047C00071E0781C10F80800142866D2DFE800F0C9
:1047D000393A3B65653C3D3E3F65656565404A59F4
:1047E000460A1D3030685C490860084601685BA0D5
:1047F00004F06EF85848006810B1012802D100E0BA
:1048000001E000E000BF00BF48E070685249486026
:104810000846416856A004F05BF84F48406810B164
:10482000012802D100E001E000E000BF00BF35E058
:10483000B068494988600846816853A004F048F888
:104840002CE02BE02AE029E028E027E026E025E024
:1048500099F8001052A004F03BF81FE053A004F0B8
:1048600037F81BE0A17962792379A068CDE900329D
:10487000CDE90210E378A278218851A004F028F84D
:104880000CE05AA004F024F85DA004F021F89AF896
:1048900000105FA004F01CF800E000BF00BF08F1AA
:1048A000010000F0FF08387840458ADC002082E7EC
:1048B0005C480068401C5B490860704759480068C4
:1048C0007047012080F3138800BF00BF564800687E
:1048D00000F4E06055490843001D53490860BFF3E8
:1048E000408F00BF00BFFEE700B5FFF7E1FF00BD4E
:1048F00008B5002000900121684600F09DF808BD31
:10490000F8B505460E464AA00068009000240DB98F
:10491000601EF8BD00241BE0295D4648FFF76AFDD4
:1049200000BF40214348FFF7D3FD0028F9D0022CF7
:104930000DD3285DFF280AD155213E48FFF75AFDC7
:1049400000BF40213B48FFF7C3FD0028F9D0641C9D
:10495000B442E1D33046DCE7F40100204576743AF6
:10496000204556454E545F6D6F64652025640A00EE
:104970004576743A204556454E545F746F7573689A
:10498000692025640A0000004576743A4556454E74
:10499000545F7368656E6779752025640A000000AE
:1049A000525353492025640A000000005452414EDE
:1049B00053504152454E545F44415441200A000037
:1049C000574946495F4E5450203A205B25642D25B7
:1049D000642D256420253032643A253032643A252E
:1049E0003032645D5B25645D200A00004D4F445504
:1049F0004C4520494E464F202E2E2E0A0000000026
:104A0000574946204D4F44554C45202E2E2E0A0026
:104A10006D6F64756C6554797065203A205B256410
:104A20005D200A00D00100200CED00E00000FA0536
:104A3000550000000048004070B504460D460026B1
:104A400024B9F6A003F044FF701E70BD2A4621462B
:104A5000FA4802F08DF90646AE4205D0F8A003F000
:104A600037FF4FF0FF30F0E73046EEE710B5044671
:104A70002CB9FAA003F02CFF4FF0FF3010BD00203E
:104A800020606060FF20207060700020F6E770B545
:104A900004460D462CB9FCA003F01AFF4FF0FF307E
:104AA00070BD2021FE4804F02AF92A462146FC4820
:104AB000801C04F0ADF8FA483D38A0F857500121A9
:104AC00080F83E10FFF7FAFEF5493D39C1F859006C
:104AD0000020E5E7F8B505460C4616460DB104B1D1
:104AE0002EB9F0A003F0F4FE4FF0FF30F8BD2878A7
:104AF00000F0010078B111212278601C81542078E7
:104B0000401C207001206B1C0246002100900846CA
:104B100001F0F3FF30602878C0F3400078B1122133
:104B20002278601C81542078401C207001206B1C6E
:104B3000024601460090002001F0DFFF70602878F7
:104B4000C0F3800060B113212278601C815420786A
:104B5000401C2070AA780021012001F0E9FEB0601D
:104B60000020C3E72DE9F04104460D46002600274A
:104B700004B135B9D6A003F0ABFE4FF0FF30BDE86D
:104B8000F081FFF79BFE074628682168884203D022
:104B9000D9A003F09DFE012668686168884203D0B1
:104BA000DAA003F095FE0126A868A168884203D028
:104BB000DCA003F08DFE0126E868E168884203D09E
:104BC000DEA003F085FE0126012E03D1FFF776FE5D
:104BD000E04908603046D2E738B504460D4604B1D6
:104BE0002DB9DDA003F074FE4FF0FF3038BD00207A
:104BF0002870A8702068022805D3E3A003F068FE9F
:104C00004FF0FF30F2E720682B4601220021009090
:104C1000084601F0D3FF6068022805D3E5A003F041
:104C200057FE4FF0FF30E1E760682B460122114646
:104C30000090002001F0C2FFE068022805D3E9A03F
:104C400003F046FE4FF0FF30D0E7E0682B4601222C
:104C500000210090022001F0B1FF0121284601F05F
:104C600047FE0121A81C01F043FEA268002101209B
:104C700001F057FE68700020B8E72DE9F047804644
:104C80000C4617461D46089E94F800900CB105B1DD
:104C900036B9E0A003F01CFE4FF0FF30BDE8F0870E
:104CA000B8F1000F56D115217D48203004F027F8C7
:104CB000B9F1010F06D0B9F1020F12D0B9F1050F09
:104CC00046D125E0764A7732A2F15701601CFFF702
:104CD00001FF012072493D39087000250020306035
:104CE00037E06F49743101F11300FFF775FF58B9D0
:104CF0006B4874300188A5F801108078E8700320B3
:104D000028700420306002E04FF0FF30C6E720E05A
:104D10007A1E611C6248243803F07AFF781E6049CD
:104D20003D39C1F8310010215D483D3890F85D20D3
:104D30005E3081545E3890F85D00401C58493D3922
:104D400081F85D000320087000250020306000E03D
:104D500000BF00BF0020A1E72DE9F04F8DB006464F
:104D60008B461746994600200C90824680460025C7
:104D70006C46BBF1000F06D1B2A003F0A9FD681E7E
:104D80000DB0BDE8F08FB9F1010F06D196F808809B
:104D900008F10600384485B201E0781D85B22B4643
:104DA00042463946ADA003F093FDFF2004F8010B05
:104DB00004F8010B281204F8010B04F8015B3079A8
:104DC000401C04F8010B707904F8010B002004F872
:104DD000010B04F8019B4FF0080AB9F1010F0CD147
:104DE00004F8018B0AF1010A0DEB0A00424606F1B4
:104DF000090103F00DFFC24444442FB10DEB0A003A
:104E00003A46594603F004FF291D684601F0A4FB09
:104E10000146E81C0DF80010291D33E14552523AB5
:104E20002067697A507574446174612062756620E8
:104E3000697320656D707479200A00006C0700208A
:104E40004552523A204661696C656420746F207245
:104E5000625772697465200A000000004552523A98
:104E60002067697A50726F746F636F6C4865616414
:104E7000496E6974206865616420697320656D708E
:104E80007479200A000000004552523A206461748F
:104E90006120697320656D707479200A000000003C
:104EA0008706002067697A44617461506F696E7487
:104EB000324576656E74204572726F72202C2049DF
:104EC0006C6C6567616C20506172616D0A00000056
:104ED00067697A436865636B5265706F72742045C9
:104EE00072726F72202C20496C6C6567616C205067
:104EF0006172616D0A00000076616C75656D6F64AA
:104F000065204368616E6765640A000076616C75B0
:104F100065746F75736869204368616E6765640ABC
:104F20000000000076616C75657368656E67797561
:104F3000204368616E6765640A00000076616C75E5
:104F400065627563686F6E67204368616E6765644C
:104F50000A000000D401002067697A44617461503E
:104F60006F696E7473325265706F727444617461EC
:104F7000204572726F72202C20496C6C6567616CE1
:104F800020506172616D0A005B4552524F525D20A4
:104F900076616C75656D6F6465204572726F722005
:104FA0002C20496C6C6567616C204F766572737458
:104FB00065700A005B4552524F525D2076616C75F8
:104FC00065746F75736869204572726F72202C204A
:104FD000496C6C6567616C204F766572737465709F
:104FE0000A0000005B4552524F525D2076616C759D
:104FF00065627563686F6E67204572726F72202CF0
:1050000020496C6C6567616C204F766572737465BE
:10501000700A000067697A50726F746F636F6C4931
:10502000737375656450726F636573732045727234
:105030006F72202C20496C6C6567616C2050617226
:10504000616D0A005B4552525D20206461746120ED
:105050004973204E756C6C200A0000006C656E2050
:105060003D202564202C20734469644C656E203DEE
:10507000202564202C646174615F6C656E203D2086
:1050800025640A006846FFF73BFC0C900C9800284A
:1050900006DAFDA00C9903F01BFC6FF001006FE62F
:1050A00000206DE62DE9FF4105460E461746002417
:1050B00036B9FBA003F00CFC601E04B0BDE8F08123
:1050C0006846FFF7D3FC05208DF80400FE4890F8F1
:1050D0003510D0F83500401CFB4AC2F83500C8B284
:1050E0008DF805008DF80850092001F048FAADF858
:1050F00002003A4631460DF1090003F089FD0D2109
:10510000684601F029FA8DF80C000D216846FFF77A
:10511000F7FB0446002C06DA2146ECA003F0D8FB8E
:105120006FF00100C9E70D216846FFF7B0FC20468B
:10513000C3E770B50546FFF7C1FB0446E249C43139
:105140002846FFF70FFD012814D1E7A003F0C0FBAC
:10515000DD49B1312846FFF73FFD28B90322DA497E
:10516000B1310420FFF79EFF10222946D648C430F3
:1051700003F04EFDE248B4FBF0F100FB1140D0B962
:10518000E0480068A04216D0DFA003F0A1FBCE49A2
:10519000B1312846FFF720FD28B90322CA49B131B1
:1051A0000420FFF77FFF10222946C748C43003F0D0
:1051B0002FFDD448046070BD2DE9FE4F80460E4699
:1051C00017464FF0000B00200290814682460025D2
:1051D00034460090B8F1000F01D006B137B9D0A025
:1051E00003F076FB4FF0FF30BDE8FE8F404601F044
:1051F00043FD00F0FF0ABAF1000F02D14FF0FF307B
:10520000F2E74FF000095DE0012201A9404601F0FC
:105210005EFD8346BBF1000F52D0CD480078FF28D9
:105220001FD19DF80400FF281BD1CA48007848B957
:10523000FF20207060700220C74908800120C54906
:10524000087034E0C4480088042830DDC248008873
:10525000A8422CD0FF20207060700220BE49088038
:1052600025E0BB480078FF2803D19DF804005528AD
:105270001DD0B8480078012819D19DF80400B6491E
:1052800009886054B4480088401CB3490880084627
:10529000008804280BDD0094009C608801F06FF901
:1052A000001D85B2AC480088A84200D10CE09DF8F2
:1052B0000400A7490870A9480078401CA749087055
:1052C00009F10109D1459FDB00BFA34800880428EC
:1052D00023DDA1480088A8421FD19F4801882046AD
:1052E00001F03AF902909C480088401E215C029827
:1052F00081420FD12A462146304603F089FC3D8089
:105300000020944908709449088094490870904995
:10531000087069E76FF0010066E7012064E710B5E7
:105320000024694890F83E0000B910BD8CA003F03D
:10533000CFFA6548B0F857103F30FFF7E1FA04465E
:105340006148B0F85700A04202D08DA003F0C0FA27
:10535000FFF7B4FA5C49C1F8590000BFE5E770B542
:105360000446594D3F3534B9AFF2E44003F0B0FA8A
:105370004FF0FF3070BD2879401C2179884204D15C
:10538000202151483D3003F0BAFC0020F2E73EB541
:105390000446002524B980A003F09AFA681E3EBD99
:1053A00020680090606801909DF80400401CC0B225
:1053B0008DF80400052001F0E2F8ADF802000921A3
:1053C000684601F0C9F88DF8080009216846FFF722
:1053D00097FA0546002D03DA29463CA003F078FA37
:1053E0002846DCE710B5384890F83E00012827D160
:1053F000354890F83D0002281DDAFFF75FFA324980
:10540000D1F85910401AC8281AD9FFF757FA04469C
:105410002D4890F83D30D0F85920214669A003F07E
:1054200057FAFFF77CFF284890F83D00401C2649BA
:1054300081F83D0004E0202123483D3003F05FFC6B
:1054400010BD30B59DB0044600252CB967A003F00F
:105450003FFA681E1DB030BD6846FFF707FB02200B
:105460008DF8040060798DF805006CA103C9CDE9C1
:1054700002016DA103C9CDE904016EA103C9CDE903
:1054800008016FA103C9E1E0756172742077726948
:105490007465206572726F72202564200A00000016
:1054A00067697A5265706F727444617461204572E5
:1054B000726F72202C20496C6C6567616C205061A2
:1054C00072616D0A000000004A0600204552523AFF
:1054D0002075617274207772697465206572726FCD
:1054E00072202564200A00006368616E6765642C81
:1054F000207265706F727420646174610A0000002C
:10550000C0270900D8010020496E666F3A20363066
:105510003053207265706F727420646174610A0088
:1055200067697A50726F746F636F6C4765744F6E02
:10553000655061636B6574204572726F72202C2018
:10554000496C6C6567616C20506172616D0A000086
:10555000E0010020DC010020DE010020E10100204C
:105560005761726E696E673A2074696D656F757404
:105570002C20726573656E642064617461200A007A
:105580004552523A20726573656E6420646174619D
:10559000206572726F720A004552523A2067697A2A
:1055A00050726F746F636F6C436F6D6D6F6E41639C
:1055B0006B206461746120697320656D707479205B
:1055C0000A0000005761726E696E673A67697A5027
:1055D000726F746F636F6C526573656E644461744F
:1055E000612025642025642025640A0067697A50BB
:1055F000726F746F636F6C47657444657669636539
:10560000496E666F204572726F72202C20496C6C57
:105610006567616C20506172616D0A003030303016
:105620003030303400000000303030303030303234
:1056300000000000303330333030303000000000E4
:10564000303330313031303000000000CDE9060118
:105650002022F8A10AA803F020FB2022FEA10DF1D0
:10566000520003F0D5FA0020CDF84A00CDF84E00E4
:105670009DF851008DF851009DF8510040F0020155
:105680008DF85110002000F07AFFADF848006F202F
:1056900000F075FFADF802007321684600F05CFF72
:1056A0008DF8720073216846FFF72AF90546002D30
:1056B00004DA2946AFF2EC1003F00AF92846C9E6ED
:1056C000FEB504460E46002524B9ECA003F000F90F
:1056D000681EFEBD6846FFF7C9F912208DF8040068
:1056E00060798DF80500062000F049FFADF8020052
:1056F0008DF808600A21684600F02EFF8DF8090039
:105700000A216846FFF7FCF80546002D04DA294611
:10571000AFF2482003F0DCF82846DAE770B504461B
:1057200025462CB9E0A003F0D3F84FF0FF3070BD50
:10573000E248A9680160E9684160298A0181A97C81
:105740008172A0F1D501B1F8D50000F018FFDB4956
:10575000D539A1F8D500D1F8DD0000F01DFFD749FB
:10576000D539C1F8DD000E21D448D53890F887200E
:1057700088308154883890F88700401CCF49D5394B
:1057800081F88700042008700020D0E710B5FFF7EB
:1057900095F8044600BFFFF791F8001BB0F5167F9F
:1057A000F9D9FFF78EF810BD10B504462CB9C4A086
:1057B00003F08EF84FF0FF3010BD208900F0DFFEBF
:1057C0002081CB480078C0F38000217AC1F38001AA
:1057D00088425ED0207AC0F3800000282DD0207A45
:1057E00000F0010088B10021B448D53890F872204B
:1057F00073308154733890F87200401CAF49D5392A
:1058000081F87200BBA003F063F8207AC0F3400077
:1058100000283ED00121A948D53890F87220733075
:105820008154733890F87200401CA449D53981F82E
:105830007200B8A003F04CF82BE0207A00F00100D1
:1058400088B100219D48D53890F87220733081547A
:10585000733890F87200401C9849D53981F872006D
:10586000A4A003F035F8207AC0F3400088B10221EB
:105870009248D53890F8722073308154733890F87C
:105880007200401C8D49D53981F87200A8A003F040
:105890001FF897480078C0F3C000217AC1F3C00117
:1058A000884230D0207AC1089148007861F3C30063
:1058B0008F490870207AC0F3C00090B103217F485F
:1058C000D53890F8722073308154733890F8720094
:1058D000401C7A49D53981F872009CA002F0F8FF8B
:1058E00011E004217548D53890F872207330815446
:1058F000733890F87200401C7049D53981F87200F5
:105900009AA002F0E5FF7A480078C0F30010217AEF
:10591000C1F30011884230D0207A01097448007820
:1059200061F3041072490870207AC0F3001090B13E
:1059300005216248D53890F872207330815473384D
:1059400090F87200401C5D49D53981F872008FA033
:1059500002F0BEFF11E006215848D53890F87220B9
:1059600073308154733890F87200401C5349D53914
:1059700081F872008DA002F0ABFF5D480078C0F3A3
:105980004010217AC1F34011884230D0207A410979
:105990005748007861F3451055490870207AC0F3E4
:1059A000401090B107214548D53890F872207330E7
:1059B0008154733890F87200401C4049D53981F801
:1059C000720083A002F084FF11E008213B48D53823
:1059D00090F8722073308154733890F87200401C34
:1059E0003649D53981F8720080A002F071FF404835
:1059F0004078C0F3C001607AC0F3C000814218D083
:105A0000607AC1083A48407861F3C3003849487069
:105A1000607AC0F3C00058B10B212848D53890F8FF
:105A2000722073308154733890F87200401CEDE09E
:105A3000F3E002E13937376339643962323537349C
:105A40003438303239383763333530666564306323
:105A500033323664000000003131393932333437A3
:105A600066353462346335613939643666333036CD
:105A700030646332346636360000000067697A505D
:105A8000726F746F636F6C4572726F72436D6420D6
:105A90004572726F72202C20496C6C6567616C20B6
:105AA000506172616D0A00004552523A204E5450C6
:105AB00020697320656D707479200A001F0700202B
:105AC00067697A50726F746F636F6C4D6F64756C39
:105AD00065537461747573204572726F72202C2047
